{
  "_format": "hh-sol-artifact-1",
  "contractName": "camp_chain",
  "sourceName": "contracts/camp_chain.sol",
  "abi": [
    {
      "anonymous": false,
      "inputs": [
        {
          "indexed": false,
          "internalType": "uint256",
          "name": "answerId",
          "type": "uint256"
        }
      ],
      "name": "AnswerVerified",
      "type": "event"
    },
    {
      "anonymous": false,
      "inputs": [
        {
          "indexed": false,
          "internalType": "uint256",
          "name": "questionId",
          "type": "uint256"
        },
        {
          "indexed": false,
          "internalType": "uint256",
          "name": "answerId",
          "type": "uint256"
        }
      ],
      "name": "AnsweredQuestion",
      "type": "event"
    },
    {
      "anonymous": false,
      "inputs": [
        {
          "indexed": false,
          "internalType": "uint256",
          "name": "questionId",
          "type": "uint256"
        }
      ],
      "name": "QuestionAsked",
      "type": "event"
    },
    {
      "anonymous": false,
      "inputs": [
        {
          "indexed": false,
          "internalType": "address",
          "name": "recipient",
          "type": "address"
        },
        {
          "indexed": false,
          "internalType": "uint256",
          "name": "amount",
          "type": "uint256"
        }
      ],
      "name": "TokensRewarded",
      "type": "event"
    },
    {
      "inputs": [
        {
          "internalType": "address",
          "name": "",
          "type": "address"
        }
      ],
      "name": "academicStaff",
      "outputs": [
        {
          "internalType": "uint256",
          "name": "StaffID",
          "type": "uint256"
        },
        {
          "internalType": "bytes16",
          "name": "name",
          "type": "bytes16"
        },
        {
          "internalType": "bytes16",
          "name": "email",
          "type": "bytes16"
        },
        {
          "internalType": "bytes32",
          "name": "field",
          "type": "bytes32"
        },
        {
          "internalType": "bool",
          "name": "category",
          "type": "bool"
        },
        {
          "internalType": "address",
          "name": "metamaskAddress",
          "type": "address"
        }
      ],
      "stateMutability": "view",
      "type": "function"
    },
    {
      "inputs": [
        {
          "internalType": "uint256",
          "name": "id",
          "type": "uint256"
        },
        {
          "internalType": "bytes16",
          "name": "name",
          "type": "bytes16"
        },
        {
          "internalType": "bytes16",
          "name": "_email",
          "type": "bytes16"
        },
        {
          "internalType": "address",
          "name": "metamaskAddress",
          "type": "address"
        }
      ],
      "name": "addAcademicStaff",
      "outputs": [],
      "stateMutability": "nonpayable",
      "type": "function"
    },
    {
      "inputs": [
        {
          "internalType": "uint256",
          "name": "_id",
          "type": "uint256"
        },
        {
          "internalType": "bytes16",
          "name": "_name",
          "type": "bytes16"
        },
        {
          "internalType": "bytes16",
          "name": "_email",
          "type": "bytes16"
        },
        {
          "internalType": "address",
          "name": "metamaskAddress",
          "type": "address"
        }
      ],
      "name": "addStudent",
      "outputs": [],
      "stateMutability": "nonpayable",
      "type": "function"
    },
    {
      "inputs": [
        {
          "internalType": "uint256",
          "name": "questionId",
          "type": "uint256"
        },
        {
          "internalType": "string",
          "name": "text",
          "type": "string"
        }
      ],
      "name": "answerQuestion",
      "outputs": [],
      "stateMutability": "nonpayable",
      "type": "function"
    },
    {
      "inputs": [
        {
          "internalType": "string",
          "name": "text",
          "type": "string"
        }
      ],
      "name": "askQuestion",
      "outputs": [],
      "stateMutability": "payable",
      "type": "function"
    },
    {
      "inputs": [
        {
          "internalType": "uint256",
          "name": "_id",
          "type": "uint256"
        }
      ],
      "name": "getQuestions",
      "outputs": [
        {
          "components": [
            {
              "internalType": "uint256",
              "name": "questionid",
              "type": "uint256"
            },
            {
              "internalType": "string",
              "name": "text",
              "type": "string"
            },
            {
              "internalType": "address",
              "name": "asker",
              "type": "address"
            },
            {
              "internalType": "bool",
              "name": "answered",
              "type": "bool"
            }
          ],
          "internalType": "struct camp_chain.Question",
          "name": "",
          "type": "tuple"
        }
      ],
      "stateMutability": "view",
      "type": "function"
    },
    {
      "inputs": [],
      "name": "getUserQuestions",
      "outputs": [
        {
          "internalType": "uint256[]",
          "name": "",
          "type": "uint256[]"
        }
      ],
      "stateMutability": "view",
      "type": "function"
    },
    {
      "inputs": [
        {
          "internalType": "address",
          "name": "",
          "type": "address"
        }
      ],
      "name": "students",
      "outputs": [
        {
          "internalType": "uint256",
          "name": "StudID",
          "type": "uint256"
        },
        {
          "internalType": "bytes16",
          "name": "name",
          "type": "bytes16"
        },
        {
          "internalType": "bytes16",
          "name": "email",
          "type": "bytes16"
        },
        {
          "internalType": "uint256",
          "name": "points",
          "type": "uint256"
        },
        {
          "internalType": "bool",
          "name": "category",
          "type": "bool"
        },
        {
          "internalType": "address",
          "name": "metamaskAddress",
          "type": "address"
        }
      ],
      "stateMutability": "view",
      "type": "function"
    },
    {
      "inputs": [
        {
          "internalType": "uint256",
          "name": "_answer",
          "type": "uint256"
        },
        {
          "internalType": "uint256",
          "name": "answertime",
          "type": "uint256"
        },
        {
          "internalType": "uint256",
          "name": "time_now",
          "type": "uint256"
        }
      ],
      "name": "upvoteA",
      "outputs": [],
      "stateMutability": "nonpayable",
      "type": "function"
    },
    {
      "inputs": [
        {
          "internalType": "address",
          "name": "",
          "type": "address"
        },
        {
          "internalType": "uint256",
          "name": "",
          "type": "uint256"
        }
      ],
      "name": "userQuestions",
      "outputs": [
        {
          "internalType": "uint256",
          "name": "",
          "type": "uint256"
        }
      ],
      "stateMutability": "view",
      "type": "function"
    }
  ],
  "bytecode": "0x608060405234801561001057600080fd5b50611c6d806100206000396000f3fe6080604052600436106100915760003560e01c8063602bdec811610059578063602bdec81461018d5780638473608e146101a9578063a6c807a9146101d2578063e0a353e014610214578063f4bcdadf1461023d57610091565b80632f068cfa1461009657806337da03e3146100d3578063432500d2146100fe578063447e52a01461012757806350bce77514610150575b600080fd5b3480156100a257600080fd5b506100bd60048036038101906100b8919061105b565b61027f565b6040516100ca91906110aa565b60405180910390f35b3480156100df57600080fd5b506100e86102b0565b6040516100f59190611183565b60405180910390f35b34801561010a57600080fd5b50610125600480360381019061012091906111fd565b610344565b005b34801561013357600080fd5b5061014e600480360381019061014991906113aa565b610577565b005b34801561015c57600080fd5b5061017760048036038101906101729190611406565b61073c565b604051610184919061153f565b60405180910390f35b6101a760048036038101906101a29190611561565b610876565b005b3480156101b557600080fd5b506101d060048036038101906101cb91906115aa565b610a0c565b005b3480156101de57600080fd5b506101f960048036038101906101f491906115fd565b610b9a565b60405161020b96959493929190611657565b60405180910390f35b34801561022057600080fd5b5061023b600480360381019061023691906111fd565b610c1d565b005b34801561024957600080fd5b50610264600480360381019061025f91906115fd565b610e86565b604051610276969594939291906116d1565b60405180910390f35b6000602052816000526040600020818154811061029b57600080fd5b90600052602060002001600091509150505481565b60606000803373ffffffffffffffffffffffffffffffffffffffff1673ffffffffffffffffffffffffffffffffffffffff16815260200190815260200160002080548060200260200160405190810160405280929190818152602001828054801561033a57602002820191906000526020600020905b815481526020019060010190808311610326575b5050505050905090565b6006600081548092919061035790611761565b91905055506040518060e00160405280858152602001846fffffffffffffffffffffffffffffffff19168152602001836fffffffffffffffffffffffffffffffff191681526020017f456e67696e656572696e670000000000000000000000000000000000000000008152602001600115158152602001600067ffffffffffffffff8111156103e9576103e861127f565b5b6040519080825280602002602001820160405280156104175781602001602082028036833780820191505090505b5081526020018273ffffffffffffffffffffffffffffffffffffffff16815250600260003373ffffffffffffffffffffffffffffffffffffffff1673ffffffffffffffffffffffffffffffffffffffff1681526020019081526020016000206000820151816000015560208201518160010160006101000a8154816fffffffffffffffffffffffffffffffff021916908360801c021790555060408201518160010160106101000a8154816fffffffffffffffffffffffffffffffff021916908360801c02179055506060820151816002015560808201518160030160006101000a81548160ff02191690831515021790555060a0820151816004019080519060200190610526929190610f09565b5060c08201518160050160006101000a81548173ffffffffffffffffffffffffffffffffffffffff021916908373ffffffffffffffffffffffffffffffffffffffff16021790555090505050505050565b6003600083815260200190815260200160002060020160149054906101000a900460ff16156105db576040517f08c379a00000000000000000000000000000000000000000000000000000000081526004016105d290611806565b60405180910390fd5b600860008154809291906105ee90611761565b9190505550604051806080016040528060085481526020018281526020013373ffffffffffffffffffffffffffffffffffffffff168152602001600015158152506004600060085481526020019081526020016000206000820151816000015560208201518160010190816106639190611a32565b5060408201518160020160006101000a81548173ffffffffffffffffffffffffffffffffffffffff021916908373ffffffffffffffffffffffffffffffffffffffff16021790555060608201518160020160146101000a81548160ff02191690831515021790555090505060016003600084815260200190815260200160002060020160146101000a81548160ff0219169083151502179055507f19f04aec6dd8740f8b63063ff55ff117fc791c24355e1ff513d4c48b21d37a7b82600854604051610730929190611b04565b60405180910390a15050565b610744610f56565b600360008381526020019081526020016000206040518060800160405290816000820154815260200160018201805461077c90611855565b80601f01602080910402602001604051908101604052809291908181526020018280546107a890611855565b80156107f55780601f106107ca576101008083540402835291602001916107f5565b820191906000526020600020905b8154815290600101906020018083116107d857829003601f168201915b505050505081526020016002820160009054906101000a900473ffffffffffffffffffffffffffffffffffffffff1673ffffffffffffffffffffffffffffffffffffffff1673ffffffffffffffffffffffffffffffffffffffff1681526020016002820160149054906101000a900460ff1615151515815250509050919050565b6007600081548092919061088990611761565b9190505550604051806080016040528060075481526020018281526020013373ffffffffffffffffffffffffffffffffffffffff168152602001600015158152506003600060075481526020019081526020016000206000820151816000015560208201518160010190816108fe9190611a32565b5060408201518160020160006101000a81548173ffffffffffffffffffffffffffffffffffffffff021916908373ffffffffffffffffffffffffffffffffffffffff16021790555060608201518160020160146101000a81548160ff0219169083151502179055509050506000803373ffffffffffffffffffffffffffffffffffffffff1673ffffffffffffffffffffffffffffffffffffffff16815260200190815260200160002060075490806001815401808255809150506001900390600052602060002001600090919091909150557fad49b6293c4313037dc15b6d20afebc522ea3961c169dd5d867d3a979da5e0b8600754604051610a0191906110aa565b60405180910390a150565b60006202a3008383610a1e9190611b2d565b610a289190611b90565b6001610a349190611b2d565b905060018015610a98575060001515600160003373ffffffffffffffffffffffffffffffffffffffff1673ffffffffffffffffffffffffffffffffffffffff16815260200190815260200160002060030160009054906101000a900460ff16151514155b600260003373ffffffffffffffffffffffffffffffffffffffff1673ffffffffffffffffffffffffffffffffffffffff16815260200190815260200160002060030160006101000a81548160ff021916908315150217905515610b0557600381610b029190611bc1565b90505b80600160006004600088815260200190815260200160002060020160009054906101000a900473ffffffffffffffffffffffffffffffffffffffff1673ffffffffffffffffffffffffffffffffffffffff1673ffffffffffffffffffffffffffffffffffffffff1681526020019081526020016000206002016000828254610b8d9190611c03565b9250508190555050505050565b60016020528060005260406000206000915090508060000154908060010160009054906101000a900460801b908060010160109054906101000a900460801b908060020154908060030160009054906101000a900460ff16908060060160009054906101000a900473ffffffffffffffffffffffffffffffffffffffff16905086565b604051806101000160405280858152602001846fffffffffffffffffffffffffffffffff19168152602001836fffffffffffffffffffffffffffffffff1916815260200160008152602001600015158152602001600067ffffffffffffffff811115610c8c57610c8b61127f565b5b604051908082528060200260200182016040528015610cba5781602001602082028036833780820191505090505b508152602001600067ffffffffffffffff811115610cdb57610cda61127f565b5b604051908082528060200260200182016040528015610d095781602001602082028036833780820191505090505b5081526020018273ffffffffffffffffffffffffffffffffffffffff16815250600160003373ffffffffffffffffffffffffffffffffffffffff1673ffffffffffffffffffffffffffffffffffffffff1681526020019081526020016000206000820151816000015560208201518160010160006101000a8154816fffffffffffffffffffffffffffffffff021916908360801c021790555060408201518160010160106101000a8154816fffffffffffffffffffffffffffffffff021916908360801c02179055506060820151816002015560808201518160030160006101000a81548160ff02191690831515021790555060a0820151816004019080519060200190610e18929190610f09565b5060c0820151816005019080519060200190610e35929190610f09565b5060e08201518160060160006101000a81548173ffffffffffffffffffffffffffffffffffffffff021916908373ffffffffffffffffffffffffffffffffffffffff16021790555090505050505050565b60026020528060005260406000206000915090508060000154908060010160009054906101000a900460801b908060010160109054906101000a900460801b908060020154908060030160009054906101000a900460ff16908060050160009054906101000a900473ffffffffffffffffffffffffffffffffffffffff16905086565b828054828255906000526020600020908101928215610f45579160200282015b82811115610f44578251825591602001919060010190610f29565b5b509050610f529190610f96565b5090565b60405180608001604052806000815260200160608152602001600073ffffffffffffffffffffffffffffffffffffffff1681526020016000151581525090565b5b80821115610faf576000816000905550600101610f97565b5090565b6000604051905090565b600080fd5b600080fd5b600073ffffffffffffffffffffffffffffffffffffffff82169050919050565b6000610ff282610fc7565b9050919050565b61100281610fe7565b811461100d57600080fd5b50565b60008135905061101f81610ff9565b92915050565b6000819050919050565b61103881611025565b811461104357600080fd5b50565b6000813590506110558161102f565b92915050565b6000806040838503121561107257611071610fbd565b5b600061108085828601611010565b925050602061109185828601611046565b9150509250929050565b6110a481611025565b82525050565b60006020820190506110bf600083018461109b565b92915050565b600081519050919050565b600082825260208201905092915050565b6000819050602082019050919050565b6110fa81611025565b82525050565b600061110c83836110f1565b60208301905092915050565b6000602082019050919050565b6000611130826110c5565b61113a81856110d0565b9350611145836110e1565b8060005b8381101561117657815161115d8882611100565b975061116883611118565b925050600181019050611149565b5085935050505092915050565b6000602082019050818103600083015261119d8184611125565b905092915050565b60007fffffffffffffffffffffffffffffffff0000000000000000000000000000000082169050919050565b6111da816111a5565b81146111e557600080fd5b50565b6000813590506111f7816111d1565b92915050565b6000806000806080858703121561121757611216610fbd565b5b600061122587828801611046565b9450506020611236878288016111e8565b9350506040611247878288016111e8565b925050606061125887828801611010565b91505092959194509250565b600080fd5b600080fd5b6000601f19601f8301169050919050565b7f4e487b7100000000000000000000000000000000000000000000000000000000600052604160045260246000fd5b6112b78261126e565b810181811067ffffffffffffffff821117156112d6576112d561127f565b5b80604052505050565b60006112e9610fb3565b90506112f582826112ae565b919050565b600067ffffffffffffffff8211156113155761131461127f565b5b61131e8261126e565b9050602081019050919050565b82818337600083830152505050565b600061134d611348846112fa565b6112df565b90508281526020810184848401111561136957611368611269565b5b61137484828561132b565b509392505050565b600082601f83011261139157611390611264565b5b81356113a184826020860161133a565b91505092915050565b600080604083850312156113c1576113c0610fbd565b5b60006113cf85828601611046565b925050602083013567ffffffffffffffff8111156113f0576113ef610fc2565b5b6113fc8582860161137c565b9150509250929050565b60006020828403121561141c5761141b610fbd565b5b600061142a84828501611046565b91505092915050565b600081519050919050565b600082825260208201905092915050565b60005b8381101561146d578082015181840152602081019050611452565b60008484015250505050565b600061148482611433565b61148e818561143e565b935061149e81856020860161144f565b6114a78161126e565b840191505092915050565b6114bb81610fe7565b82525050565b60008115159050919050565b6114d6816114c1565b82525050565b60006080830160008301516114f460008601826110f1565b506020830151848203602086015261150c8282611479565b915050604083015161152160408601826114b2565b50606083015161153460608601826114cd565b508091505092915050565b6000602082019050818103600083015261155981846114dc565b905092915050565b60006020828403121561157757611576610fbd565b5b600082013567ffffffffffffffff81111561159557611594610fc2565b5b6115a18482850161137c565b91505092915050565b6000806000606084860312156115c3576115c2610fbd565b5b60006115d186828701611046565b93505060206115e286828701611046565b92505060406115f386828701611046565b9150509250925092565b60006020828403121561161357611612610fbd565b5b600061162184828501611010565b91505092915050565b611633816111a5565b82525050565b611642816114c1565b82525050565b61165181610fe7565b82525050565b600060c08201905061166c600083018961109b565b611679602083018861162a565b611686604083018761162a565b611693606083018661109b565b6116a06080830185611639565b6116ad60a0830184611648565b979650505050505050565b6000819050919050565b6116cb816116b8565b82525050565b600060c0820190506116e6600083018961109b565b6116f3602083018861162a565b611700604083018761162a565b61170d60608301866116c2565b61171a6080830185611639565b61172760a0830184611648565b979650505050505050565b7f4e487b7100000000000000000000000000000000000000000000000000000000600052601160045260246000fd5b600061176c82611025565b91507fffffffffffffffffffffffffffffffffffffffffffffffffffffffffffffffff820361179e5761179d611732565b5b600182019050919050565b600082825260208201905092915050565b7f5175657374696f6e20616c726561647920616e73776572656400000000000000600082015250565b60006117f06019836117a9565b91506117fb826117ba565b602082019050919050565b6000602082019050818103600083015261181f816117e3565b9050919050565b7f4e487b7100000000000000000000000000000000000000000000000000000000600052602260045260246000fd5b6000600282049050600182168061186d57607f821691505b6020821081036118805761187f611826565b5b50919050565b60008190508160005260206000209050919050565b60006020601f8301049050919050565b600082821b905092915050565b6000600883026118e87fffffffffffffffffffffffffffffffffffffffffffffffffffffffffffffffff826118ab565b6118f286836118ab565b95508019841693508086168417925050509392505050565b6000819050919050565b600061192f61192a61192584611025565b61190a565b611025565b9050919050565b6000819050919050565b61194983611914565b61195d61195582611936565b8484546118b8565b825550505050565b600090565b611972611965565b61197d818484611940565b505050565b5b818110156119a15761199660008261196a565b600181019050611983565b5050565b601f8211156119e6576119b781611886565b6119c08461189b565b810160208510156119cf578190505b6119e36119db8561189b565b830182611982565b50505b505050565b600082821c905092915050565b6000611a09600019846008026119eb565b1980831691505092915050565b6000611a2283836119f8565b9150826002028217905092915050565b611a3b82611433565b67ffffffffffffffff811115611a5457611a5361127f565b5b611a5e8254611855565b611a698282856119a5565b600060209050601f831160018114611a9c5760008415611a8a578287015190505b611a948582611a16565b865550611afc565b601f198416611aaa86611886565b60005b82811015611ad257848901518255600182019150602085019450602081019050611aad565b86831015611aef5784890151611aeb601f8916826119f8565b8355505b6001600288020188555050505b505050505050565b6000604082019050611b19600083018561109b565b611b26602083018461109b565b9392505050565b6000611b3882611025565b9150611b4383611025565b9250828203905081811115611b5b57611b5a611732565b5b92915050565b7f4e487b7100000000000000000000000000000000000000000000000000000000600052601260045260246000fd5b6000611b9b82611025565b9150611ba683611025565b925082611bb657611bb5611b61565b5b828204905092915050565b6000611bcc82611025565b9150611bd783611025565b9250828202611be581611025565b91508282048414831517611bfc57611bfb611732565b5b5092915050565b6000611c0e82611025565b9150611c1983611025565b9250828201905080821115611c3157611c30611732565b5b9291505056fea264697066735822122053df0a54383c65c6e8cd29ce24f3f7763cee4c478f7b413f7012c6e6d3c2678864736f6c63430008110033",
  "linkReferences": {},
  "deployedLinkReferences": {}
}