{
  "_format": "hh-sol-artifact-1",
  "contractName": "camp_chain",
  "sourceName": "contracts/camp_chain.sol",
  "abi": [
    {
      "inputs": [],
      "stateMutability": "nonpayable",
      "type": "constructor"
    },
    {
      "inputs": [
        {
          "internalType": "address",
          "name": "",
          "type": "address"
        }
      ],
      "name": "academicStaff",
      "outputs": [
        {
          "internalType": "uint256",
          "name": "staffID",
          "type": "uint256"
        },
        {
          "internalType": "string",
          "name": "name",
          "type": "string"
        },
        {
          "internalType": "string",
          "name": "email",
          "type": "string"
        },
        {
          "internalType": "string",
          "name": "field",
          "type": "string"
        },
        {
          "internalType": "address",
          "name": "staffMetaAddress",
          "type": "address"
        },
        {
          "internalType": "uint256",
          "name": "points",
          "type": "uint256"
        },
        {
          "internalType": "bool",
          "name": "isVal",
          "type": "bool"
        },
        {
          "internalType": "string",
          "name": "password",
          "type": "string"
        }
      ],
      "stateMutability": "view",
      "type": "function"
    },
    {
      "inputs": [
        {
          "internalType": "string",
          "name": "_body",
          "type": "string"
        },
        {
          "internalType": "uint256",
          "name": "_questionID",
          "type": "uint256"
        }
      ],
      "name": "addAnswer",
      "outputs": [],
      "stateMutability": "nonpayable",
      "type": "function"
    },
    {
      "inputs": [
        {
          "internalType": "string",
          "name": "_title",
          "type": "string"
        },
        {
          "internalType": "string",
          "name": "_body",
          "type": "string"
        }
      ],
      "name": "addQuestion",
      "outputs": [],
      "stateMutability": "nonpayable",
      "type": "function"
    },
    {
      "inputs": [
        {
          "internalType": "uint256",
          "name": "_staffID",
          "type": "uint256"
        },
        {
          "internalType": "string",
          "name": "_name",
          "type": "string"
        },
        {
          "internalType": "string",
          "name": "_email",
          "type": "string"
        },
        {
          "internalType": "address",
          "name": "_staffMetaAddress",
          "type": "address"
        },
        {
          "internalType": "string",
          "name": "_field",
          "type": "string"
        }
      ],
      "name": "addStaff",
      "outputs": [
        {
          "internalType": "uint256",
          "name": "",
          "type": "uint256"
        }
      ],
      "stateMutability": "nonpayable",
      "type": "function"
    },
    {
      "inputs": [
        {
          "internalType": "uint256",
          "name": "_studID",
          "type": "uint256"
        },
        {
          "internalType": "string",
          "name": "_username",
          "type": "string"
        },
        {
          "internalType": "uint256",
          "name": "_year",
          "type": "uint256"
        },
        {
          "internalType": "string",
          "name": "_email",
          "type": "string"
        },
        {
          "internalType": "address",
          "name": "_metaAddress",
          "type": "address"
        },
        {
          "internalType": "string",
          "name": "_department",
          "type": "string"
        },
        {
          "internalType": "uint256",
          "name": "_points",
          "type": "uint256"
        },
        {
          "internalType": "string",
          "name": "_pass",
          "type": "string"
        }
      ],
      "name": "addStudent",
      "outputs": [
        {
          "internalType": "uint256",
          "name": "",
          "type": "uint256"
        }
      ],
      "stateMutability": "nonpayable",
      "type": "function"
    },
    {
      "inputs": [],
      "name": "answerID",
      "outputs": [
        {
          "internalType": "uint256",
          "name": "",
          "type": "uint256"
        }
      ],
      "stateMutability": "view",
      "type": "function"
    },
    {
      "inputs": [
        {
          "internalType": "uint256",
          "name": "",
          "type": "uint256"
        }
      ],
      "name": "answers",
      "outputs": [
        {
          "internalType": "uint256",
          "name": "answerID",
          "type": "uint256"
        },
        {
          "internalType": "address",
          "name": "owner",
          "type": "address"
        },
        {
          "internalType": "string",
          "name": "body",
          "type": "string"
        },
        {
          "internalType": "bool",
          "name": "verified",
          "type": "bool"
        },
        {
          "internalType": "uint256",
          "name": "voteA",
          "type": "uint256"
        },
        {
          "internalType": "uint256",
          "name": "answerDate",
          "type": "uint256"
        }
      ],
      "stateMutability": "view",
      "type": "function"
    },
    {
      "inputs": [
        {
          "internalType": "address",
          "name": "",
          "type": "address"
        }
      ],
      "name": "balance",
      "outputs": [
        {
          "internalType": "uint256",
          "name": "",
          "type": "uint256"
        }
      ],
      "stateMutability": "view",
      "type": "function"
    },
    {
      "inputs": [
        {
          "internalType": "uint256",
          "name": "_id",
          "type": "uint256"
        }
      ],
      "name": "getAnswer",
      "outputs": [
        {
          "components": [
            {
              "internalType": "uint256",
              "name": "answerID",
              "type": "uint256"
            },
            {
              "internalType": "address",
              "name": "owner",
              "type": "address"
            },
            {
              "internalType": "string",
              "name": "body",
              "type": "string"
            },
            {
              "internalType": "bool",
              "name": "verified",
              "type": "bool"
            },
            {
              "internalType": "uint256",
              "name": "voteA",
              "type": "uint256"
            },
            {
              "internalType": "uint256",
              "name": "answerDate",
              "type": "uint256"
            }
          ],
          "internalType": "struct camp_chain.Answer",
          "name": "",
          "type": "tuple"
        }
      ],
      "stateMutability": "view",
      "type": "function"
    },
    {
      "inputs": [],
      "name": "getCount",
      "outputs": [
        {
          "internalType": "uint256",
          "name": "",
          "type": "uint256"
        }
      ],
      "stateMutability": "view",
      "type": "function"
    },
    {
      "inputs": [
        {
          "internalType": "uint256",
          "name": "_id",
          "type": "uint256"
        }
      ],
      "name": "getQuestion",
      "outputs": [
        {
          "components": [
            {
              "internalType": "uint256",
              "name": "questionID",
              "type": "uint256"
            },
            {
              "internalType": "address",
              "name": "asker",
              "type": "address"
            },
            {
              "internalType": "string",
              "name": "title",
              "type": "string"
            },
            {
              "internalType": "string",
              "name": "body",
              "type": "string"
            },
            {
              "internalType": "bool",
              "name": "answered",
              "type": "bool"
            },
            {
              "internalType": "uint256[]",
              "name": "answers",
              "type": "uint256[]"
            },
            {
              "internalType": "uint256",
              "name": "voteQ",
              "type": "uint256"
            },
            {
              "internalType": "uint256",
              "name": "questionDate",
              "type": "uint256"
            }
          ],
          "internalType": "struct camp_chain.Question",
          "name": "",
          "type": "tuple"
        }
      ],
      "stateMutability": "view",
      "type": "function"
    },
    {
      "inputs": [
        {
          "internalType": "address",
          "name": "_metaAddress",
          "type": "address"
        }
      ],
      "name": "getUserQuestion",
      "outputs": [
        {
          "components": [
            {
              "internalType": "uint256",
              "name": "questionID",
              "type": "uint256"
            },
            {
              "internalType": "address",
              "name": "asker",
              "type": "address"
            },
            {
              "internalType": "string",
              "name": "title",
              "type": "string"
            },
            {
              "internalType": "string",
              "name": "body",
              "type": "string"
            },
            {
              "internalType": "bool",
              "name": "answered",
              "type": "bool"
            },
            {
              "internalType": "uint256[]",
              "name": "answers",
              "type": "uint256[]"
            },
            {
              "internalType": "uint256",
              "name": "voteQ",
              "type": "uint256"
            },
            {
              "internalType": "uint256",
              "name": "questionDate",
              "type": "uint256"
            }
          ],
          "internalType": "struct camp_chain.Question[]",
          "name": "",
          "type": "tuple[]"
        }
      ],
      "stateMutability": "view",
      "type": "function"
    },
    {
      "inputs": [],
      "name": "owner",
      "outputs": [
        {
          "internalType": "address payable",
          "name": "",
          "type": "address"
        }
      ],
      "stateMutability": "view",
      "type": "function"
    },
    {
      "inputs": [],
      "name": "questionCount",
      "outputs": [
        {
          "internalType": "uint256",
          "name": "",
          "type": "uint256"
        }
      ],
      "stateMutability": "view",
      "type": "function"
    },
    {
      "inputs": [
        {
          "internalType": "uint256",
          "name": "",
          "type": "uint256"
        }
      ],
      "name": "questions",
      "outputs": [
        {
          "internalType": "uint256",
          "name": "questionID",
          "type": "uint256"
        },
        {
          "internalType": "address",
          "name": "asker",
          "type": "address"
        },
        {
          "internalType": "string",
          "name": "title",
          "type": "string"
        },
        {
          "internalType": "string",
          "name": "body",
          "type": "string"
        },
        {
          "internalType": "bool",
          "name": "answered",
          "type": "bool"
        },
        {
          "internalType": "uint256",
          "name": "voteQ",
          "type": "uint256"
        },
        {
          "internalType": "uint256",
          "name": "questionDate",
          "type": "uint256"
        }
      ],
      "stateMutability": "view",
      "type": "function"
    },
    {
      "inputs": [
        {
          "internalType": "address",
          "name": "_MetaAddress",
          "type": "address"
        },
        {
          "internalType": "uint256",
          "name": "_ammount",
          "type": "uint256"
        }
      ],
      "name": "reward",
      "outputs": [],
      "stateMutability": "nonpayable",
      "type": "function"
    },
    {
      "inputs": [
        {
          "internalType": "address",
          "name": "",
          "type": "address"
        },
        {
          "internalType": "uint256",
          "name": "",
          "type": "uint256"
        }
      ],
      "name": "staffAnswers",
      "outputs": [
        {
          "internalType": "uint256",
          "name": "",
          "type": "uint256"
        }
      ],
      "stateMutability": "view",
      "type": "function"
    },
    {
      "inputs": [],
      "name": "staffNum",
      "outputs": [
        {
          "internalType": "uint256",
          "name": "",
          "type": "uint256"
        }
      ],
      "stateMutability": "view",
      "type": "function"
    },
    {
      "inputs": [
        {
          "internalType": "address",
          "name": "",
          "type": "address"
        },
        {
          "internalType": "uint256",
          "name": "",
          "type": "uint256"
        }
      ],
      "name": "staffQuestions",
      "outputs": [
        {
          "internalType": "uint256",
          "name": "",
          "type": "uint256"
        }
      ],
      "stateMutability": "view",
      "type": "function"
    },
    {
      "inputs": [
        {
          "internalType": "address",
          "name": "",
          "type": "address"
        },
        {
          "internalType": "uint256",
          "name": "",
          "type": "uint256"
        }
      ],
      "name": "studentAnswers",
      "outputs": [
        {
          "internalType": "uint256",
          "name": "",
          "type": "uint256"
        }
      ],
      "stateMutability": "view",
      "type": "function"
    },
    {
      "inputs": [
        {
          "internalType": "address",
          "name": "",
          "type": "address"
        },
        {
          "internalType": "uint256",
          "name": "",
          "type": "uint256"
        }
      ],
      "name": "studentQuestions",
      "outputs": [
        {
          "internalType": "uint256",
          "name": "",
          "type": "uint256"
        }
      ],
      "stateMutability": "view",
      "type": "function"
    },
    {
      "inputs": [
        {
          "internalType": "address",
          "name": "",
          "type": "address"
        }
      ],
      "name": "students",
      "outputs": [
        {
          "internalType": "uint256",
          "name": "studID",
          "type": "uint256"
        },
        {
          "internalType": "string",
          "name": "username",
          "type": "string"
        },
        {
          "internalType": "uint256",
          "name": "year",
          "type": "uint256"
        },
        {
          "internalType": "string",
          "name": "email",
          "type": "string"
        },
        {
          "internalType": "address",
          "name": "metaAddress",
          "type": "address"
        },
        {
          "internalType": "string",
          "name": "department",
          "type": "string"
        },
        {
          "internalType": "uint256",
          "name": "points",
          "type": "uint256"
        },
        {
          "internalType": "string",
          "name": "password",
          "type": "string"
        }
      ],
      "stateMutability": "view",
      "type": "function"
    },
    {
      "inputs": [],
      "name": "studentsNum",
      "outputs": [
        {
          "internalType": "uint256",
          "name": "",
          "type": "uint256"
        }
      ],
      "stateMutability": "view",
      "type": "function"
    },
    {
      "inputs": [
        {
          "internalType": "uint256",
          "name": "_answerID",
          "type": "uint256"
        },
        {
          "internalType": "uint256",
          "name": "_p",
          "type": "uint256"
        }
      ],
      "name": "voteA",
      "outputs": [],
      "stateMutability": "nonpayable",
      "type": "function"
    },
    {
      "inputs": [
        {
          "internalType": "uint256",
          "name": "_questionID",
          "type": "uint256"
        },
        {
          "internalType": "uint256",
          "name": "_p",
          "type": "uint256"
        }
      ],
      "name": "voteQ",
      "outputs": [],
      "stateMutability": "nonpayable",
      "type": "function"
    }
  ],
  "bytecode": "0x6080604052600060025560006003556000600455600060055534801561002457600080fd5b50336000806101000a81548173ffffffffffffffffffffffffffffffffffffffff021916908373ffffffffffffffffffffffffffffffffffffffff16021790555073e596e16b19ce685e6fc0a9e2291e66fd1fda3819600160006101000a81548173ffffffffffffffffffffffffffffffffffffffff021916908373ffffffffffffffffffffffffffffffffffffffff160217905550613872806100c96000396000f3fe608060405234801561001057600080fd5b50600436106101735760003560e01c8063a13f7618116100de578063c32833fb11610097578063db88176f11610071578063db88176f146104aa578063e3d670d7146104da578063f21110831461050a578063f4bcdadf1461053a57610173565b8063c32833fb1461042e578063d0f98c471461045e578063d69a614c1461047a57610173565b8063a13f76181461033f578063a5f6f8471461036f578063a6c807a91461038b578063a87d942c146103c2578063b5ab58dc146103e0578063b73284441461041057610173565b806348768a951161013057806348768a95146102695780637291ae3e1461029957806385e93dff146102c95780638da5cb5b146102e7578063964cd98414610305578063a0ec18eb1461032357610173565b80631468aa2c1461017857806317599cc51461019657806321670f22146101cb57806331b1b978146101e757806333d4020c1461021d5780633611315014610239575b600080fd5b610180610571565b60405161018d9190612692565b60405180910390f35b6101b060048036038101906101ab91906126ed565b610577565b6040516101c296959493929190612806565b60405180910390f35b6101e560048036038101906101e0919061289a565b610668565b005b61020160048036038101906101fc91906126ed565b6106fb565b60405161021497969594939291906128da565b60405180910390f35b61023760048036038101906102329190612a8c565b61087a565b005b610253600480360381019061024e9190612ae8565b610b34565b6040516102609190612692565b60405180910390f35b610283600480360381019061027e9190612c0e565b610cae565b6040516102909190612692565b60405180910390f35b6102b360048036038101906102ae919061289a565b610db8565b6040516102c09190612692565b60405180910390f35b6102d1610de9565b6040516102de9190612692565b60405180910390f35b6102ef610def565b6040516102fc9190612cfe565b60405180910390f35b61030d610e13565b60405161031a9190612692565b60405180910390f35b61033d60048036038101906103389190612d19565b610e19565b005b61035960048036038101906103549190612d91565b61111d565b6040516103669190613064565b60405180910390f35b61038960048036038101906103849190613086565b611496565b005b6103a560048036038101906103a09190612d91565b61183d565b6040516103b99897969594939291906130c6565b60405180910390f35b6103ca611ac5565b6040516103d79190612692565b60405180910390f35b6103fa60048036038101906103f591906126ed565b611acf565b60405161040791906131e9565b60405180910390f35b610418611c1d565b6040516104259190612692565b60405180910390f35b6104486004803603810190610443919061289a565b611c23565b6040516104559190612692565b60405180910390f35b61047860048036038101906104739190613086565b611c54565b005b610494600480360381019061048f919061289a565b61201c565b6040516104a19190612692565b60405180910390f35b6104c460048036038101906104bf91906126ed565b61204d565b6040516104d191906132c9565b60405180910390f35b6104f460048036038101906104ef9190612d91565b612286565b6040516105019190612692565b60405180910390f35b610524600480360381019061051f919061289a565b61229e565b6040516105319190612692565b60405180910390f35b610554600480360381019061054f9190612d91565b6122cf565b6040516105689897969594939291906132eb565b60405180910390f35b60045481565b60096020528060005260406000206000915090508060000154908060010160009054906101000a900473ffffffffffffffffffffffffffffffffffffffff16908060020180546105c6906133b4565b80601f01602080910402602001604051908101604052809291908181526020018280546105f2906133b4565b801561063f5780601f106106145761010080835404028352916020019161063f565b820191906000526020600020905b81548152906001019060200180831161062257829003601f168201915b5050505050908060030160009054906101000a900460ff16908060040154908060050154905086565b600160009054906101000a900473ffffffffffffffffffffffffffffffffffffffff1673ffffffffffffffffffffffffffffffffffffffff166321670f2283836040518363ffffffff1660e01b81526004016106c59291906133e5565b600060405180830381600087803b1580156106df57600080fd5b505af11580156106f3573d6000803e3d6000fd5b505050505050565b60086020528060005260406000206000915090508060000154908060010160009054906101000a900473ffffffffffffffffffffffffffffffffffffffff169080600201805461074a906133b4565b80601f0160208091040260200160405190810160405280929190818152602001828054610776906133b4565b80156107c35780601f10610798576101008083540402835291602001916107c3565b820191906000526020600020905b8154815290600101906020018083116107a657829003601f168201915b5050505050908060030180546107d8906133b4565b80601f0160208091040260200160405190810160405280929190818152602001828054610804906133b4565b80156108515780601f1061082657610100808354040283529160200191610851565b820191906000526020600020905b81548152906001019060200180831161083457829003601f168201915b5050505050908060040160009054906101000a900460ff16908060060154908060070154905087565b6005600081548092919061088d9061343d565b91905055506040518060c0016040528060055481526020013373ffffffffffffffffffffffffffffffffffffffff16815260200183815260200160001515815260200160008152602001428152506009600060055481526020019081526020016000206000820151816000015560208201518160010160006101000a81548173ffffffffffffffffffffffffffffffffffffffff021916908373ffffffffffffffffffffffffffffffffffffffff16021790555060408201518160020190816109569190613631565b5060608201518160030160006101000a81548160ff0219169083151502179055506080820151816004015560a082015181600501559050506006600060096000600554815260200190815260200160002060010160009054906101000a900473ffffffffffffffffffffffffffffffffffffffff1673ffffffffffffffffffffffffffffffffffffffff1673ffffffffffffffffffffffffffffffffffffffff16815260200190815260200160002060060160009054906101000a900460ff1615610a8857600d60003373ffffffffffffffffffffffffffffffffffffffff1673ffffffffffffffffffffffffffffffffffffffff1681526020019081526020016000206005549080600181540180825580915050600190039060005260206000200160009091909190915055610af1565b600b60003373ffffffffffffffffffffffffffffffffffffffff1673ffffffffffffffffffffffffffffffffffffffff16815260200190815260200160002060055490806001815401808255809150506001900390600052602060002001600090919091909150555b6008600082815260200190815260200160002060050160055490806001815401808255809150506001900390600052602060002001600090919091909150555050565b60006040518061010001604052808a81526020018981526020018881526020018781526020018673ffffffffffffffffffffffffffffffffffffffff16815260200185815260200184815260200183815250600760003373ffffffffffffffffffffffffffffffffffffffff1673ffffffffffffffffffffffffffffffffffffffff168152602001908152602001600020600082015181600001556020820151816001019081610be49190613631565b50604082015181600201556060820151816003019081610c049190613631565b5060808201518160040160006101000a81548173ffffffffffffffffffffffffffffffffffffffff021916908373ffffffffffffffffffffffffffffffffffffffff16021790555060a0820151816005019081610c619190613631565b5060c0820151816006015560e0820151816007019081610c819190613631565b5090505060026000815480929190610c989061343d565b9190505550600254905098975050505050505050565b600080600660008573ffffffffffffffffffffffffffffffffffffffff1673ffffffffffffffffffffffffffffffffffffffff168152602001908152602001600020905086816000018190555085816001019081610d0c9190613631565b5084816002019081610d1e9190613631565b50838160040160006101000a81548173ffffffffffffffffffffffffffffffffffffffff021916908373ffffffffffffffffffffffffffffffffffffffff16021790555082816003019081610d739190613631565b5060036000815480929190610d879061343d565b919050555060018160060160006101000a81548160ff02191690831515021790555060035491505095945050505050565b600a6020528160005260406000208181548110610dd457600080fd5b90600052602060002001600091509150505481565b60035481565b60008054906101000a900473ffffffffffffffffffffffffffffffffffffffff1681565b60025481565b60046000815480929190610e2c9061343d565b919050555060405180610100016040528060045481526020013373ffffffffffffffffffffffffffffffffffffffff168152602001838152602001828152602001600015158152602001600067ffffffffffffffff811115610e9157610e90612961565b5b604051908082528060200260200182016040528015610ebf5781602001602082028036833780820191505090505b50815260200160008152602001428152506008600060045481526020019081526020016000206000820151816000015560208201518160010160006101000a81548173ffffffffffffffffffffffffffffffffffffffff021916908373ffffffffffffffffffffffffffffffffffffffff1602179055506040820151816002019081610f4b9190613631565b506060820151816003019081610f619190613631565b5060808201518160040160006101000a81548160ff02191690831515021790555060a0820151816005019080519060200190610f9e929190612564565b5060c0820151816006015560e082015181600701559050506006600060086000600454815260200190815260200160002060010160009054906101000a900473ffffffffffffffffffffffffffffffffffffffff1673ffffffffffffffffffffffffffffffffffffffff1673ffffffffffffffffffffffffffffffffffffffff16815260200190815260200160002060060160009054906101000a900460ff16156110b057600c60003373ffffffffffffffffffffffffffffffffffffffff1673ffffffffffffffffffffffffffffffffffffffff1681526020019081526020016000206004549080600181540180825580915050600190039060005260206000200160009091909190915055611119565b600a60003373ffffffffffffffffffffffffffffffffffffffff1673ffffffffffffffffffffffffffffffffffffffff16815260200190815260200160002060045490806001815401808255809150506001900390600052602060002001600090919091909150555b5050565b60606000600a60008473ffffffffffffffffffffffffffffffffffffffff1673ffffffffffffffffffffffffffffffffffffffff1681526020019081526020016000208054806020026020016040519081016040528092919081815260200182805480156111aa57602002820191906000526020600020905b815481526020019060010190808311611196575b505050505090506000815167ffffffffffffffff8111156111ce576111cd612961565b5b60405190808252806020026020018201604052801561120757816020015b6111f46125b1565b8152602001906001900390816111ec5790505b50905060005b825181101561148b576008600084838151811061122d5761122c613703565b5b6020026020010151815260200190815260200160002060405180610100016040529081600082015481526020016001820160009054906101000a900473ffffffffffffffffffffffffffffffffffffffff1673ffffffffffffffffffffffffffffffffffffffff1673ffffffffffffffffffffffffffffffffffffffff1681526020016002820180546112bf906133b4565b80601f01602080910402602001604051908101604052809291908181526020018280546112eb906133b4565b80156113385780601f1061130d57610100808354040283529160200191611338565b820191906000526020600020905b81548152906001019060200180831161131b57829003601f168201915b50505050508152602001600382018054611351906133b4565b80601f016020809104026020016040519081016040528092919081815260200182805461137d906133b4565b80156113ca5780601f1061139f576101008083540402835291602001916113ca565b820191906000526020600020905b8154815290600101906020018083116113ad57829003601f168201915b505050505081526020016004820160009054906101000a900460ff161515151581526020016005820180548060200260200160405190810160405280929190818152602001828054801561143d57602002820191906000526020600020905b815481526020019060010190808311611429575b505050505081526020016006820154815260200160078201548152505082828151811061146d5761146c613703565b5b602002602001018190525080806114839061343d565b91505061120d565b508092505050919050565b806008600084815260200190815260200160002060060160008282546114bc9190613732565b92505081905550600062278d006008600085815260200190815260200160002060070154426114eb9190613766565b6114f591906137c9565b60016115019190613766565b8261150c91906137fa565b9050600660003373ffffffffffffffffffffffffffffffffffffffff1673ffffffffffffffffffffffffffffffffffffffff16815260200190815260200160002060060160009054906101000a900460ff16156115735760038161157091906137fa565b90505b600660006008600086815260200190815260200160002060010160009054906101000a900473ffffffffffffffffffffffffffffffffffffffff1673ffffffffffffffffffffffffffffffffffffffff1673ffffffffffffffffffffffffffffffffffffffff16815260200190815260200160002060060160009054906101000a900460ff16156116925780600660006008600087815260200190815260200160002060010160009054906101000a900473ffffffffffffffffffffffffffffffffffffffff1673ffffffffffffffffffffffffffffffffffffffff1673ffffffffffffffffffffffffffffffffffffffff16815260200190815260200160002060050160008282546116869190613732565b92505081905550611722565b80600760006008600087815260200190815260200160002060010160009054906101000a900473ffffffffffffffffffffffffffffffffffffffff1673ffffffffffffffffffffffffffffffffffffffff1673ffffffffffffffffffffffffffffffffffffffff168152602001908152602001600020600601600082825461171a9190613732565b925050819055505b60648110158015611733575060c881105b1561177e576117796008600085815260200190815260200160002060010160009054906101000a900473ffffffffffffffffffffffffffffffffffffffff16600a610668565b611838565b6101f4811015801561179157506103e881105b156117dc576117d76008600085815260200190815260200160002060010160009054906101000a900473ffffffffffffffffffffffffffffffffffffffff166032610668565b611837565b6103e881101580156117ef57506105dc81105b15611836576118356008600085815260200190815260200160002060010160009054906101000a900473ffffffffffffffffffffffffffffffffffffffff166064610668565b5b5b5b505050565b6007602052806000526040600020600091509050806000015490806001018054611866906133b4565b80601f0160208091040260200160405190810160405280929190818152602001828054611892906133b4565b80156118df5780601f106118b4576101008083540402835291602001916118df565b820191906000526020600020905b8154815290600101906020018083116118c257829003601f168201915b5050505050908060020154908060030180546118fa906133b4565b80601f0160208091040260200160405190810160405280929190818152602001828054611926906133b4565b80156119735780601f1061194857610100808354040283529160200191611973565b820191906000526020600020905b81548152906001019060200180831161195657829003601f168201915b5050505050908060040160009054906101000a900473ffffffffffffffffffffffffffffffffffffffff16908060050180546119ae906133b4565b80601f01602080910402602001604051908101604052809291908181526020018280546119da906133b4565b8015611a275780601f106119fc57610100808354040283529160200191611a27565b820191906000526020600020905b815481529060010190602001808311611a0a57829003601f168201915b505050505090806006015490806007018054611a42906133b4565b80601f0160208091040260200160405190810160405280929190818152602001828054611a6e906133b4565b8015611abb5780601f10611a9057610100808354040283529160200191611abb565b820191906000526020600020905b815481529060010190602001808311611a9e57829003601f168201915b5050505050905088565b6000600454905090565b611ad761260e565b600960008381526020019081526020016000206040518060c0016040529081600082015481526020016001820160009054906101000a900473ffffffffffffffffffffffffffffffffffffffff1673ffffffffffffffffffffffffffffffffffffffff1673ffffffffffffffffffffffffffffffffffffffff168152602001600282018054611b65906133b4565b80601f0160208091040260200160405190810160405280929190818152602001828054611b91906133b4565b8015611bde5780601f10611bb357610100808354040283529160200191611bde565b820191906000526020600020905b815481529060010190602001808311611bc157829003601f168201915b505050505081526020016003820160009054906101000a900460ff16151515158152602001600482015481526020016005820154815250509050919050565b60055481565b600b6020528160005260406000208181548110611c3f57600080fd5b90600052602060002001600091509150505481565b80600960008481526020019081526020016000206004016000828254611c7a9190613732565b92505081905550600062278d00600960008581526020019081526020016000206005015442611ca99190613766565b611cb391906137c9565b6001611cbf9190613766565b82611cca91906137fa565b9050600960008481526020019081526020016000206004016000815480929190611cf39061343d565b9190505550600660003373ffffffffffffffffffffffffffffffffffffffff1673ffffffffffffffffffffffffffffffffffffffff16815260200190815260200160002060060160009054906101000a900460ff1615611d5257600390505b600660006009600086815260200190815260200160002060010160009054906101000a900473ffffffffffffffffffffffffffffffffffffffff1673ffffffffffffffffffffffffffffffffffffffff1673ffffffffffffffffffffffffffffffffffffffff16815260200190815260200160002060060160009054906101000a900460ff1615611e715780600660006009600087815260200190815260200160002060010160009054906101000a900473ffffffffffffffffffffffffffffffffffffffff1673ffffffffffffffffffffffffffffffffffffffff1673ffffffffffffffffffffffffffffffffffffffff1681526020019081526020016000206005016000828254611e659190613732565b92505081905550611f01565b80600760006009600087815260200190815260200160002060010160009054906101000a900473ffffffffffffffffffffffffffffffffffffffff1673ffffffffffffffffffffffffffffffffffffffff1673ffffffffffffffffffffffffffffffffffffffff1681526020019081526020016000206006016000828254611ef99190613732565b925050819055505b60648110158015611f12575060c881105b15611f5d57611f586009600085815260200190815260200160002060010160009054906101000a900473ffffffffffffffffffffffffffffffffffffffff16600a610668565b612017565b6101f48110158015611f7057506103e881105b15611fbb57611fb66009600085815260200190815260200160002060010160009054906101000a900473ffffffffffffffffffffffffffffffffffffffff166032610668565b612016565b6103e88110158015611fce57506105dc81105b15612015576120146009600085815260200190815260200160002060010160009054906101000a900473ffffffffffffffffffffffffffffffffffffffff166064610668565b5b5b5b505050565b600d602052816000526040600020818154811061203857600080fd5b90600052602060002001600091509150505481565b6120556125b1565b6008600083815260200190815260200160002060405180610100016040529081600082015481526020016001820160009054906101000a900473ffffffffffffffffffffffffffffffffffffffff1673ffffffffffffffffffffffffffffffffffffffff1673ffffffffffffffffffffffffffffffffffffffff1681526020016002820180546120e4906133b4565b80601f0160208091040260200160405190810160405280929190818152602001828054612110906133b4565b801561215d5780601f106121325761010080835404028352916020019161215d565b820191906000526020600020905b81548152906001019060200180831161214057829003601f168201915b50505050508152602001600382018054612176906133b4565b80601f01602080910402602001604051908101604052809291908181526020018280546121a2906133b4565b80156121ef5780601f106121c4576101008083540402835291602001916121ef565b820191906000526020600020905b8154815290600101906020018083116121d257829003601f168201915b505050505081526020016004820160009054906101000a900460ff161515151581526020016005820180548060200260200160405190810160405280929190818152602001828054801561226257602002820191906000526020600020905b81548152602001906001019080831161224e575b50505050508152602001600682015481526020016007820154815250509050919050565b600e6020528060005260406000206000915090505481565b600c60205281600052604060002081815481106122ba57600080fd5b90600052602060002001600091509150505481565b60066020528060005260406000206000915090508060000154908060010180546122f8906133b4565b80601f0160208091040260200160405190810160405280929190818152602001828054612324906133b4565b80156123715780601f1061234657610100808354040283529160200191612371565b820191906000526020600020905b81548152906001019060200180831161235457829003601f168201915b505050505090806002018054612386906133b4565b80601f01602080910402602001604051908101604052809291908181526020018280546123b2906133b4565b80156123ff5780601f106123d4576101008083540402835291602001916123ff565b820191906000526020600020905b8154815290600101906020018083116123e257829003601f168201915b505050505090806003018054612414906133b4565b80601f0160208091040260200160405190810160405280929190818152602001828054612440906133b4565b801561248d5780601f106124625761010080835404028352916020019161248d565b820191906000526020600020905b81548152906001019060200180831161247057829003601f168201915b5050505050908060040160009054906101000a900473ffffffffffffffffffffffffffffffffffffffff16908060050154908060060160009054906101000a900460ff16908060070180546124e1906133b4565b80601f016020809104026020016040519081016040528092919081815260200182805461250d906133b4565b801561255a5780601f1061252f5761010080835404028352916020019161255a565b820191906000526020600020905b81548152906001019060200180831161253d57829003601f168201915b5050505050905088565b8280548282559060005260206000209081019282156125a0579160200282015b8281111561259f578251825591602001919060010190612584565b5b5090506125ad919061265c565b5090565b60405180610100016040528060008152602001600073ffffffffffffffffffffffffffffffffffffffff16815260200160608152602001606081526020016000151581526020016060815260200160008152602001600081525090565b6040518060c0016040528060008152602001600073ffffffffffffffffffffffffffffffffffffffff1681526020016060815260200160001515815260200160008152602001600081525090565b5b8082111561267557600081600090555060010161265d565b5090565b6000819050919050565b61268c81612679565b82525050565b60006020820190506126a76000830184612683565b92915050565b6000604051905090565b600080fd5b600080fd5b6126ca81612679565b81146126d557600080fd5b50565b6000813590506126e7816126c1565b92915050565b600060208284031215612703576127026126b7565b5b6000612711848285016126d8565b91505092915050565b600073ffffffffffffffffffffffffffffffffffffffff82169050919050565b60006127458261271a565b9050919050565b6127558161273a565b82525050565b600081519050919050565b600082825260208201905092915050565b60005b8381101561279557808201518184015260208101905061277a565b60008484015250505050565b6000601f19601f8301169050919050565b60006127bd8261275b565b6127c78185612766565b93506127d7818560208601612777565b6127e0816127a1565b840191505092915050565b60008115159050919050565b612800816127eb565b82525050565b600060c08201905061281b6000830189612683565b612828602083018861274c565b818103604083015261283a81876127b2565b905061284960608301866127f7565b6128566080830185612683565b61286360a0830184612683565b979650505050505050565b6128778161273a565b811461288257600080fd5b50565b6000813590506128948161286e565b92915050565b600080604083850312156128b1576128b06126b7565b5b60006128bf85828601612885565b92505060206128d0858286016126d8565b9150509250929050565b600060e0820190506128ef600083018a612683565b6128fc602083018961274c565b818103604083015261290e81886127b2565b9050818103606083015261292281876127b2565b905061293160808301866127f7565b61293e60a0830185612683565b61294b60c0830184612683565b98975050505050505050565b600080fd5b600080fd5b7f4e487b7100000000000000000000000000000000000000000000000000000000600052604160045260246000fd5b612999826127a1565b810181811067ffffffffffffffff821117156129b8576129b7612961565b5b80604052505050565b60006129cb6126ad565b90506129d78282612990565b919050565b600067ffffffffffffffff8211156129f7576129f6612961565b5b612a00826127a1565b9050602081019050919050565b82818337600083830152505050565b6000612a2f612a2a846129dc565b6129c1565b905082815260208101848484011115612a4b57612a4a61295c565b5b612a56848285612a0d565b509392505050565b600082601f830112612a7357612a72612957565b5b8135612a83848260208601612a1c565b91505092915050565b60008060408385031215612aa357612aa26126b7565b5b600083013567ffffffffffffffff811115612ac157612ac06126bc565b5b612acd85828601612a5e565b9250506020612ade858286016126d8565b9150509250929050565b600080600080600080600080610100898b031215612b0957612b086126b7565b5b6000612b178b828c016126d8565b985050602089013567ffffffffffffffff811115612b3857612b376126bc565b5b612b448b828c01612a5e565b9750506040612b558b828c016126d8565b965050606089013567ffffffffffffffff811115612b7657612b756126bc565b5b612b828b828c01612a5e565b9550506080612b938b828c01612885565b94505060a089013567ffffffffffffffff811115612bb457612bb36126bc565b5b612bc08b828c01612a5e565b93505060c0612bd18b828c016126d8565b92505060e089013567ffffffffffffffff811115612bf257612bf16126bc565b5b612bfe8b828c01612a5e565b9150509295985092959890939650565b600080600080600060a08688031215612c2a57612c296126b7565b5b6000612c38888289016126d8565b955050602086013567ffffffffffffffff811115612c5957612c586126bc565b5b612c6588828901612a5e565b945050604086013567ffffffffffffffff811115612c8657612c856126bc565b5b612c9288828901612a5e565b9350506060612ca388828901612885565b925050608086013567ffffffffffffffff811115612cc457612cc36126bc565b5b612cd088828901612a5e565b9150509295509295909350565b6000612ce88261271a565b9050919050565b612cf881612cdd565b82525050565b6000602082019050612d136000830184612cef565b92915050565b60008060408385031215612d3057612d2f6126b7565b5b600083013567ffffffffffffffff811115612d4e57612d4d6126bc565b5b612d5a85828601612a5e565b925050602083013567ffffffffffffffff811115612d7b57612d7a6126bc565b5b612d8785828601612a5e565b9150509250929050565b600060208284031215612da757612da66126b7565b5b6000612db584828501612885565b91505092915050565b600081519050919050565b600082825260208201905092915050565b6000819050602082019050919050565b612df381612679565b82525050565b612e028161273a565b82525050565b600082825260208201905092915050565b6000612e248261275b565b612e2e8185612e08565b9350612e3e818560208601612777565b612e47816127a1565b840191505092915050565b612e5b816127eb565b82525050565b600081519050919050565b600082825260208201905092915050565b6000819050602082019050919050565b6000612e998383612dea565b60208301905092915050565b6000602082019050919050565b6000612ebd82612e61565b612ec78185612e6c565b9350612ed283612e7d565b8060005b83811015612f03578151612eea8882612e8d565b9750612ef583612ea5565b925050600181019050612ed6565b5085935050505092915050565b600061010083016000830151612f296000860182612dea565b506020830151612f3c6020860182612df9565b5060408301518482036040860152612f548282612e19565b91505060608301518482036060860152612f6e8282612e19565b9150506080830151612f836080860182612e52565b5060a083015184820360a0860152612f9b8282612eb2565b91505060c0830151612fb060c0860182612dea565b5060e0830151612fc360e0860182612dea565b508091505092915050565b6000612fda8383612f10565b905092915050565b6000602082019050919050565b6000612ffa82612dbe565b6130048185612dc9565b93508360208202850161301685612dda565b8060005b8581101561305257848403895281516130338582612fce565b945061303e83612fe2565b925060208a0199505060018101905061301a565b50829750879550505050505092915050565b6000602082019050818103600083015261307e8184612fef565b905092915050565b6000806040838503121561309d5761309c6126b7565b5b60006130ab858286016126d8565b92505060206130bc858286016126d8565b9150509250929050565b6000610100820190506130dc600083018b612683565b81810360208301526130ee818a6127b2565b90506130fd6040830189612683565b818103606083015261310f81886127b2565b905061311e608083018761274c565b81810360a083015261313081866127b2565b905061313f60c0830185612683565b81810360e083015261315181846127b2565b90509998505050505050505050565b600060c0830160008301516131786000860182612dea565b50602083015161318b6020860182612df9565b50604083015184820360408601526131a38282612e19565b91505060608301516131b86060860182612e52565b5060808301516131cb6080860182612dea565b5060a08301516131de60a0860182612dea565b508091505092915050565b600060208201905081810360008301526132038184613160565b905092915050565b6000610100830160008301516132246000860182612dea565b5060208301516132376020860182612df9565b506040830151848203604086015261324f8282612e19565b915050606083015184820360608601526132698282612e19565b915050608083015161327e6080860182612e52565b5060a083015184820360a08601526132968282612eb2565b91505060c08301516132ab60c0860182612dea565b5060e08301516132be60e0860182612dea565b508091505092915050565b600060208201905081810360008301526132e3818461320b565b905092915050565b600061010082019050613301600083018b612683565b8181036020830152613313818a6127b2565b9050818103604083015261332781896127b2565b9050818103606083015261333b81886127b2565b905061334a608083018761274c565b61335760a0830186612683565b61336460c08301856127f7565b81810360e083015261337681846127b2565b90509998505050505050505050565b7f4e487b7100000000000000000000000000000000000000000000000000000000600052602260045260246000fd5b600060028204905060018216806133cc57607f821691505b6020821081036133df576133de613385565b5b50919050565b60006040820190506133fa600083018561274c565b6134076020830184612683565b9392505050565b7f4e487b7100000000000000000000000000000000000000000000000000000000600052601160045260246000fd5b600061344882612679565b91507fffffffffffffffffffffffffffffffffffffffffffffffffffffffffffffffff820361347a5761347961340e565b5b600182019050919050565b60008190508160005260206000209050919050565b60006020601f8301049050919050565b600082821b905092915050565b6000600883026134e77fffffffffffffffffffffffffffffffffffffffffffffffffffffffffffffffff826134aa565b6134f186836134aa565b95508019841693508086168417925050509392505050565b6000819050919050565b600061352e61352961352484612679565b613509565b612679565b9050919050565b6000819050919050565b61354883613513565b61355c61355482613535565b8484546134b7565b825550505050565b600090565b613571613564565b61357c81848461353f565b505050565b5b818110156135a057613595600082613569565b600181019050613582565b5050565b601f8211156135e5576135b681613485565b6135bf8461349a565b810160208510156135ce578190505b6135e26135da8561349a565b830182613581565b50505b505050565b600082821c905092915050565b6000613608600019846008026135ea565b1980831691505092915050565b600061362183836135f7565b9150826002028217905092915050565b61363a8261275b565b67ffffffffffffffff81111561365357613652612961565b5b61365d82546133b4565b6136688282856135a4565b600060209050601f83116001811461369b5760008415613689578287015190505b6136938582613615565b8655506136fb565b601f1984166136a986613485565b60005b828110156136d1578489015182556001820191506020850194506020810190506136ac565b868310156136ee57848901516136ea601f8916826135f7565b8355505b6001600288020188555050505b505050505050565b7f4e487b7100000000000000000000000000000000000000000000000000000000600052603260045260246000fd5b600061373d82612679565b915061374883612679565b92508282019050808211156137605761375f61340e565b5b92915050565b600061377182612679565b915061377c83612679565b92508282039050818111156137945761379361340e565b5b92915050565b7f4e487b7100000000000000000000000000000000000000000000000000000000600052601260045260246000fd5b60006137d482612679565b91506137df83612679565b9250826137ef576137ee61379a565b5b828204905092915050565b600061380582612679565b915061381083612679565b925082820261381e81612679565b915082820484148315176138355761383461340e565b5b509291505056fea26469706673582212206070e0867a0f3fac2902ca466b3a900d63dfbe121d3f449a2ce864799ad8e67c64736f6c63430008110033",
  "linkReferences": {},
  "deployedLinkReferences": {}
}