{
  "_format": "hh-sol-artifact-1",
  "contractName": "TofuToken",
  "sourceName": "contracts/TofuToken.sol",
  "abi": [
    {
      "inputs": [
        {
          "internalType": "uint256",
          "name": "cap",
          "type": "uint256"
        },
        {
          "internalType": "uint256",
          "name": "_reward",
          "type": "uint256"
        }
      ],
      "stateMutability": "nonpayable",
      "type": "constructor"
    },
    {
      "anonymous": false,
      "inputs": [
        {
          "indexed": true,
          "internalType": "address",
          "name": "owner",
          "type": "address"
        },
        {
          "indexed": true,
          "internalType": "address",
          "name": "spender",
          "type": "address"
        },
        {
          "indexed": false,
          "internalType": "uint256",
          "name": "value",
          "type": "uint256"
        }
      ],
      "name": "Approval",
      "type": "event"
    },
    {
      "anonymous": false,
      "inputs": [
        {
          "indexed": true,
          "internalType": "address",
          "name": "from",
          "type": "address"
        },
        {
          "indexed": true,
          "internalType": "address",
          "name": "to",
          "type": "address"
        },
        {
          "indexed": false,
          "internalType": "uint256",
          "name": "value",
          "type": "uint256"
        }
      ],
      "name": "Transfer",
      "type": "event"
    },
    {
      "inputs": [
        {
          "internalType": "address",
          "name": "owner",
          "type": "address"
        },
        {
          "internalType": "address",
          "name": "spender",
          "type": "address"
        }
      ],
      "name": "allowance",
      "outputs": [
        {
          "internalType": "uint256",
          "name": "",
          "type": "uint256"
        }
      ],
      "stateMutability": "view",
      "type": "function"
    },
    {
      "inputs": [
        {
          "internalType": "address",
          "name": "spender",
          "type": "address"
        },
        {
          "internalType": "uint256",
          "name": "amount",
          "type": "uint256"
        }
      ],
      "name": "approve",
      "outputs": [
        {
          "internalType": "bool",
          "name": "",
          "type": "bool"
        }
      ],
      "stateMutability": "nonpayable",
      "type": "function"
    },
    {
      "inputs": [
        {
          "internalType": "address",
          "name": "account",
          "type": "address"
        }
      ],
      "name": "balanceOf",
      "outputs": [
        {
          "internalType": "uint256",
          "name": "",
          "type": "uint256"
        }
      ],
      "stateMutability": "view",
      "type": "function"
    },
    {
      "inputs": [],
      "name": "blockReward",
      "outputs": [
        {
          "internalType": "uint256",
          "name": "",
          "type": "uint256"
        }
      ],
      "stateMutability": "view",
      "type": "function"
    },
    {
      "inputs": [
        {
          "internalType": "uint256",
          "name": "amount",
          "type": "uint256"
        }
      ],
      "name": "burn",
      "outputs": [],
      "stateMutability": "nonpayable",
      "type": "function"
    },
    {
      "inputs": [
        {
          "internalType": "address",
          "name": "account",
          "type": "address"
        },
        {
          "internalType": "uint256",
          "name": "amount",
          "type": "uint256"
        }
      ],
      "name": "burnFrom",
      "outputs": [],
      "stateMutability": "nonpayable",
      "type": "function"
    },
    {
      "inputs": [],
      "name": "cap",
      "outputs": [
        {
          "internalType": "uint256",
          "name": "",
          "type": "uint256"
        }
      ],
      "stateMutability": "view",
      "type": "function"
    },
    {
      "inputs": [],
      "name": "decimals",
      "outputs": [
        {
          "internalType": "uint8",
          "name": "",
          "type": "uint8"
        }
      ],
      "stateMutability": "view",
      "type": "function"
    },
    {
      "inputs": [
        {
          "internalType": "address",
          "name": "spender",
          "type": "address"
        },
        {
          "internalType": "uint256",
          "name": "subtractedValue",
          "type": "uint256"
        }
      ],
      "name": "decreaseAllowance",
      "outputs": [
        {
          "internalType": "bool",
          "name": "",
          "type": "bool"
        }
      ],
      "stateMutability": "nonpayable",
      "type": "function"
    },
    {
      "inputs": [],
      "name": "destroy",
      "outputs": [],
      "stateMutability": "nonpayable",
      "type": "function"
    },
    {
      "inputs": [
        {
          "internalType": "address",
          "name": "spender",
          "type": "address"
        },
        {
          "internalType": "uint256",
          "name": "addedValue",
          "type": "uint256"
        }
      ],
      "name": "increaseAllowance",
      "outputs": [
        {
          "internalType": "bool",
          "name": "",
          "type": "bool"
        }
      ],
      "stateMutability": "nonpayable",
      "type": "function"
    },
    {
      "inputs": [],
      "name": "name",
      "outputs": [
        {
          "internalType": "string",
          "name": "",
          "type": "string"
        }
      ],
      "stateMutability": "view",
      "type": "function"
    },
    {
      "inputs": [],
      "name": "owner",
      "outputs": [
        {
          "internalType": "address payable",
          "name": "",
          "type": "address"
        }
      ],
      "stateMutability": "view",
      "type": "function"
    },
    {
      "inputs": [
        {
          "internalType": "address",
          "name": "_metaAddress",
          "type": "address"
        },
        {
          "internalType": "uint256",
          "name": "_ammount",
          "type": "uint256"
        }
      ],
      "name": "reward",
      "outputs": [],
      "stateMutability": "nonpayable",
      "type": "function"
    },
    {
      "inputs": [
        {
          "internalType": "uint256",
          "name": "_reward",
          "type": "uint256"
        }
      ],
      "name": "setBlockReward",
      "outputs": [],
      "stateMutability": "nonpayable",
      "type": "function"
    },
    {
      "inputs": [],
      "name": "symbol",
      "outputs": [
        {
          "internalType": "string",
          "name": "",
          "type": "string"
        }
      ],
      "stateMutability": "view",
      "type": "function"
    },
    {
      "inputs": [],
      "name": "totalSupply",
      "outputs": [
        {
          "internalType": "uint256",
          "name": "",
          "type": "uint256"
        }
      ],
      "stateMutability": "view",
      "type": "function"
    },
    {
      "inputs": [
        {
          "internalType": "address",
          "name": "to",
          "type": "address"
        },
        {
          "internalType": "uint256",
          "name": "amount",
          "type": "uint256"
        }
      ],
      "name": "transfer",
      "outputs": [
        {
          "internalType": "bool",
          "name": "",
          "type": "bool"
        }
      ],
      "stateMutability": "nonpayable",
      "type": "function"
    },
    {
      "inputs": [
        {
          "internalType": "address",
          "name": "from",
          "type": "address"
        },
        {
          "internalType": "address",
          "name": "to",
          "type": "address"
        },
        {
          "internalType": "uint256",
          "name": "amount",
          "type": "uint256"
        }
      ],
      "name": "transferFrom",
      "outputs": [
        {
          "internalType": "bool",
          "name": "",
          "type": "bool"
        }
      ],
      "stateMutability": "nonpayable",
      "type": "function"
    }
  ],
  "bytecode": "0x60a06040523480156200001157600080fd5b5060405162002c7838038062002c7883398181016040528101906200003791906200058c565b620000476200021e60201b60201c565b600a62000055919062000763565b82620000629190620007b4565b6040518060400160405280600981526020017f546f6675546f6b656e00000000000000000000000000000000000000000000008152506040518060400160405280600381526020017f544f4600000000000000000000000000000000000000000000000000000000008152508160039081620000df919062000a6f565b508060049081620000f1919062000a6f565b505050600081116200013a576040517f08c379a0000000000000000000000000000000000000000000000000000000008152600401620001319062000bb7565b60405180910390fd5b80608081815250505033600560006101000a81548173ffffffffffffffffffffffffffffffffffffffff021916908373ffffffffffffffffffffffffffffffffffffffff160217905550620001e5600560009054906101000a900473ffffffffffffffffffffffffffffffffffffffff16620001bb6200021e60201b60201c565b600a620001c9919062000763565b620f4240620001d99190620007b4565b6200022760201b60201c565b620001f56200021e60201b60201c565b600a62000203919062000763565b81620002109190620007b4565b600681905550505062000d26565b60006012905090565b6200023e82826200024260201b620009ac1760201c565b5050565b62000252620002d360201b60201c565b8162000268620002dd60201b6200047d1760201c565b62000274919062000bd9565b1115620002b8576040517f08c379a0000000000000000000000000000000000000000000000000000000008152600401620002af9062000c64565b60405180910390fd5b620002cf8282620002e760201b62000a161760201c565b5050565b6000608051905090565b6000600254905090565b600073ffffffffffffffffffffffffffffffffffffffff168273ffffffffffffffffffffffffffffffffffffffff160362000359576040517f08c379a0000000000000000000000000000000000000000000000000000000008152600401620003509062000cd6565b60405180910390fd5b6200036d600083836200045460201b60201c565b806002600082825462000381919062000bd9565b92505081905550806000808473ffffffffffffffffffffffffffffffffffffffff1673ffffffffffffffffffffffffffffffffffffffff168152602001908152602001600020600082825401925050819055508173ffffffffffffffffffffffffffffffffffffffff16600073ffffffffffffffffffffffffffffffffffffffff167fddf252ad1be2c89b69c2b068fc378daa952ba7f163c4a11628f55a4df523b3ef8360405162000434919062000d09565b60405180910390a362000450600083836200052c60201b60201c565b5050565b600073ffffffffffffffffffffffffffffffffffffffff168373ffffffffffffffffffffffffffffffffffffffff1614158015620004be57504173ffffffffffffffffffffffffffffffffffffffff168273ffffffffffffffffffffffffffffffffffffffff1614155b8015620004f85750600073ffffffffffffffffffffffffffffffffffffffff164173ffffffffffffffffffffffffffffffffffffffff1614155b156200050f576200050e6200053160201b60201c565b5b620005278383836200054760201b62000b6c1760201c565b505050565b505050565b62000545416006546200022760201b60201c565b565b505050565b600080fd5b6000819050919050565b620005668162000551565b81146200057257600080fd5b50565b60008151905062000586816200055b565b92915050565b60008060408385031215620005a657620005a56200054c565b5b6000620005b68582860162000575565b9250506020620005c98582860162000575565b9150509250929050565b7f4e487b7100000000000000000000000000000000000000000000000000000000600052601160045260246000fd5b60008160011c9050919050565b6000808291508390505b60018511156200066157808604811115620006395762000638620005d3565b5b6001851615620006495780820291505b8081029050620006598562000602565b945062000619565b94509492505050565b6000826200067c57600190506200074f565b816200068c57600090506200074f565b8160018114620006a55760028114620006b057620006e6565b60019150506200074f565b60ff841115620006c557620006c4620005d3565b5b8360020a915084821115620006df57620006de620005d3565b5b506200074f565b5060208310610133831016604e8410600b8410161715620007205782820a9050838111156200071a5762000719620005d3565b5b6200074f565b6200072f84848460016200060f565b92509050818404811115620007495762000748620005d3565b5b81810290505b9392505050565b600060ff82169050919050565b6000620007708262000551565b91506200077d8362000756565b9250620007ac7fffffffffffffffffffffffffffffffffffffffffffffffffffffffffffffffff84846200066a565b905092915050565b6000620007c18262000551565b9150620007ce8362000551565b9250828202620007de8162000551565b91508282048414831517620007f857620007f7620005d3565b5b5092915050565b600081519050919050565b7f4e487b7100000000000000000000000000000000000000000000000000000000600052604160045260246000fd5b7f4e487b7100000000000000000000000000000000000000000000000000000000600052602260045260246000fd5b600060028204905060018216806200088157607f821691505b60208210810362000897576200089662000839565b5b50919050565b60008190508160005260206000209050919050565b60006020601f8301049050919050565b600082821b905092915050565b600060088302620009017fffffffffffffffffffffffffffffffffffffffffffffffffffffffffffffffff82620008c2565b6200090d8683620008c2565b95508019841693508086168417925050509392505050565b6000819050919050565b6000620009506200094a620009448462000551565b62000925565b62000551565b9050919050565b6000819050919050565b6200096c836200092f565b620009846200097b8262000957565b848454620008cf565b825550505050565b600090565b6200099b6200098c565b620009a881848462000961565b505050565b5b81811015620009d057620009c460008262000991565b600181019050620009ae565b5050565b601f82111562000a1f57620009e9816200089d565b620009f484620008b2565b8101602085101562000a04578190505b62000a1c62000a1385620008b2565b830182620009ad565b50505b505050565b600082821c905092915050565b600062000a446000198460080262000a24565b1980831691505092915050565b600062000a5f838362000a31565b9150826002028217905092915050565b62000a7a82620007ff565b67ffffffffffffffff81111562000a965762000a956200080a565b5b62000aa2825462000868565b62000aaf828285620009d4565b600060209050601f83116001811462000ae7576000841562000ad2578287015190505b62000ade858262000a51565b86555062000b4e565b601f19841662000af7866200089d565b60005b8281101562000b215784890151825560018201915060208501945060208101905062000afa565b8683101562000b41578489015162000b3d601f89168262000a31565b8355505b6001600288020188555050505b505050505050565b600082825260208201905092915050565b7f45524332304361707065643a2063617020697320300000000000000000000000600082015250565b600062000b9f60158362000b56565b915062000bac8262000b67565b602082019050919050565b6000602082019050818103600083015262000bd28162000b90565b9050919050565b600062000be68262000551565b915062000bf38362000551565b925082820190508082111562000c0e5762000c0d620005d3565b5b92915050565b7f45524332304361707065643a2063617020657863656564656400000000000000600082015250565b600062000c4c60198362000b56565b915062000c598262000c14565b602082019050919050565b6000602082019050818103600083015262000c7f8162000c3d565b9050919050565b7f45524332303a206d696e7420746f20746865207a65726f206164647265737300600082015250565b600062000cbe601f8362000b56565b915062000ccb8262000c86565b602082019050919050565b6000602082019050818103600083015262000cf18162000caf565b9050919050565b62000d038162000551565b82525050565b600060208201905062000d20600083018462000cf8565b92915050565b608051611f3662000d4260003960006106310152611f366000f3fe608060405234801561001057600080fd5b50600436106101215760003560e01c806339509351116100ad5780638da5cb5b116100715780638da5cb5b146102f657806395d89b4114610314578063a457c2d714610332578063a9059cbb14610362578063dd62ed3e1461039257610121565b8063395093511461025457806342966c681461028457806370a08231146102a057806379cc6790146102d057806383197ef0146102ec57610121565b80631a18e707116100f45780631a18e707146101b057806321670f22146101cc57806323b872dd146101e8578063313ce56714610218578063355274ea1461023657610121565b806306fdde0314610126578063095ea7b3146101445780630ac168a11461017457806318160ddd14610192575b600080fd5b61012e6103c2565b60405161013b9190611382565b60405180910390f35b61015e6004803603810190610159919061143d565b610454565b60405161016b9190611498565b60405180910390f35b61017c610477565b60405161018991906114c2565b60405180910390f35b61019a61047d565b6040516101a791906114c2565b60405180910390f35b6101ca60048036038101906101c591906114dd565b610487565b005b6101e660048036038101906101e1919061143d565b61053f565b005b61020260048036038101906101fd919061150a565b6105f5565b60405161020f9190611498565b60405180910390f35b610220610624565b60405161022d9190611579565b60405180910390f35b61023e61062d565b60405161024b91906114c2565b60405180910390f35b61026e6004803603810190610269919061143d565b610655565b60405161027b9190611498565b60405180910390f35b61029e600480360381019061029991906114dd565b61068c565b005b6102ba60048036038101906102b59190611594565b6106a0565b6040516102c791906114c2565b60405180910390f35b6102ea60048036038101906102e5919061143d565b6106e8565b005b6102f4610708565b005b6102fe6107d3565b60405161030b91906115e2565b60405180910390f35b61031c6107f9565b6040516103299190611382565b60405180910390f35b61034c6004803603810190610347919061143d565b61088b565b6040516103599190611498565b60405180910390f35b61037c6004803603810190610377919061143d565b610902565b6040516103899190611498565b60405180910390f35b6103ac60048036038101906103a791906115fd565b610925565b6040516103b991906114c2565b60405180910390f35b6060600380546103d19061166c565b80601f01602080910402602001604051908101604052809291908181526020018280546103fd9061166c565b801561044a5780601f1061041f5761010080835404028352916020019161044a565b820191906000526020600020905b81548152906001019060200180831161042d57829003601f168201915b5050505050905090565b60008061045f610b71565b905061046c818585610b79565b600191505092915050565b60065481565b6000600254905090565b600560009054906101000a900473ffffffffffffffffffffffffffffffffffffffff1673ffffffffffffffffffffffffffffffffffffffff163373ffffffffffffffffffffffffffffffffffffffff1614610517576040517f08c379a000000000000000000000000000000000000000000000000000000000815260040161050e906116e9565b60405180910390fd5b61051f610624565b600a61052b919061186b565b8161053691906118b6565b60068190555050565b600073ffffffffffffffffffffffffffffffffffffffff168273ffffffffffffffffffffffffffffffffffffffff16141580156105a857504173ffffffffffffffffffffffffffffffffffffffff168273ffffffffffffffffffffffffffffffffffffffff1614155b80156105e15750600073ffffffffffffffffffffffffffffffffffffffff164173ffffffffffffffffffffffffffffffffffffffff1614155b156105f1576105f08282610d42565b5b5050565b600080610600610b71565b905061060d858285610d50565b610618858585610ddc565b60019150509392505050565b60006012905090565b60007f0000000000000000000000000000000000000000000000000000000000000000905090565b600080610660610b71565b90506106818185856106728589610925565b61067c91906118f8565b610b79565b600191505092915050565b61069d610697610b71565b82611052565b50565b60008060008373ffffffffffffffffffffffffffffffffffffffff1673ffffffffffffffffffffffffffffffffffffffff168152602001908152602001600020549050919050565b6106fa826106f4610b71565b83610d50565b6107048282611052565b5050565b600560009054906101000a900473ffffffffffffffffffffffffffffffffffffffff1673ffffffffffffffffffffffffffffffffffffffff163373ffffffffffffffffffffffffffffffffffffffff1614610798576040517f08c379a000000000000000000000000000000000000000000000000000000000815260040161078f906116e9565b60405180910390fd5b600560009054906101000a900473ffffffffffffffffffffffffffffffffffffffff1673ffffffffffffffffffffffffffffffffffffffff16ff5b600560009054906101000a900473ffffffffffffffffffffffffffffffffffffffff1681565b6060600480546108089061166c565b80601f01602080910402602001604051908101604052809291908181526020018280546108349061166c565b80156108815780601f1061085657610100808354040283529160200191610881565b820191906000526020600020905b81548152906001019060200180831161086457829003601f168201915b5050505050905090565b600080610896610b71565b905060006108a48286610925565b9050838110156108e9576040517f08c379a00000000000000000000000000000000000000000000000000000000081526004016108e09061199e565b60405180910390fd5b6108f68286868403610b79565b60019250505092915050565b60008061090d610b71565b905061091a818585610ddc565b600191505092915050565b6000600160008473ffffffffffffffffffffffffffffffffffffffff1673ffffffffffffffffffffffffffffffffffffffff16815260200190815260200160002060008373ffffffffffffffffffffffffffffffffffffffff1673ffffffffffffffffffffffffffffffffffffffff16815260200190815260200160002054905092915050565b6109b461062d565b816109bd61047d565b6109c791906118f8565b1115610a08576040517f08c379a00000000000000000000000000000000000000000000000000000000081526004016109ff90611a0a565b60405180910390fd5b610a128282610a16565b5050565b600073ffffffffffffffffffffffffffffffffffffffff168273ffffffffffffffffffffffffffffffffffffffff1603610a85576040517f08c379a0000000000000000000000000000000000000000000000000000000008152600401610a7c90611a76565b60405180910390fd5b610a916000838361121f565b8060026000828254610aa391906118f8565b92505081905550806000808473ffffffffffffffffffffffffffffffffffffffff1673ffffffffffffffffffffffffffffffffffffffff168152602001908152602001600020600082825401925050819055508173ffffffffffffffffffffffffffffffffffffffff16600073ffffffffffffffffffffffffffffffffffffffff167fddf252ad1be2c89b69c2b068fc378daa952ba7f163c4a11628f55a4df523b3ef83604051610b5491906114c2565b60405180910390a3610b68600083836112df565b5050565b505050565b600033905090565b600073ffffffffffffffffffffffffffffffffffffffff168373ffffffffffffffffffffffffffffffffffffffff1603610be8576040517f08c379a0000000000000000000000000000000000000000000000000000000008152600401610bdf90611b08565b60405180910390fd5b600073ffffffffffffffffffffffffffffffffffffffff168273ffffffffffffffffffffffffffffffffffffffff1603610c57576040517f08c379a0000000000000000000000000000000000000000000000000000000008152600401610c4e90611b9a565b60405180910390fd5b80600160008573ffffffffffffffffffffffffffffffffffffffff1673ffffffffffffffffffffffffffffffffffffffff16815260200190815260200160002060008473ffffffffffffffffffffffffffffffffffffffff1673ffffffffffffffffffffffffffffffffffffffff168152602001908152602001600020819055508173ffffffffffffffffffffffffffffffffffffffff168373ffffffffffffffffffffffffffffffffffffffff167f8c5be1e5ebec7d5bd14f71427d1e84f3dd0314c0f7b2291e5b200ac8c7c3b92583604051610d3591906114c2565b60405180910390a3505050565b610d4c82826109ac565b5050565b6000610d5c8484610925565b90507fffffffffffffffffffffffffffffffffffffffffffffffffffffffffffffffff8114610dd65781811015610dc8576040517f08c379a0000000000000000000000000000000000000000000000000000000008152600401610dbf90611c06565b60405180910390fd5b610dd58484848403610b79565b5b50505050565b600073ffffffffffffffffffffffffffffffffffffffff168373ffffffffffffffffffffffffffffffffffffffff1603610e4b576040517f08c379a0000000000000000000000000000000000000000000000000000000008152600401610e4290611c98565b60405180910390fd5b600073ffffffffffffffffffffffffffffffffffffffff168273ffffffffffffffffffffffffffffffffffffffff1603610eba576040517f08c379a0000000000000000000000000000000000000000000000000000000008152600401610eb190611d2a565b60405180910390fd5b610ec583838361121f565b60008060008573ffffffffffffffffffffffffffffffffffffffff1673ffffffffffffffffffffffffffffffffffffffff16815260200190815260200160002054905081811015610f4b576040517f08c379a0000000000000000000000000000000000000000000000000000000008152600401610f4290611dbc565b60405180910390fd5b8181036000808673ffffffffffffffffffffffffffffffffffffffff1673ffffffffffffffffffffffffffffffffffffffff16815260200190815260200160002081905550816000808573ffffffffffffffffffffffffffffffffffffffff1673ffffffffffffffffffffffffffffffffffffffff168152602001908152602001600020600082825401925050819055508273ffffffffffffffffffffffffffffffffffffffff168473ffffffffffffffffffffffffffffffffffffffff167fddf252ad1be2c89b69c2b068fc378daa952ba7f163c4a11628f55a4df523b3ef8460405161103991906114c2565b60405180910390a361104c8484846112df565b50505050565b600073ffffffffffffffffffffffffffffffffffffffff168273ffffffffffffffffffffffffffffffffffffffff16036110c1576040517f08c379a00000000000000000000000000000000000000000000000000000000081526004016110b890611e4e565b60405180910390fd5b6110cd8260008361121f565b60008060008473ffffffffffffffffffffffffffffffffffffffff1673ffffffffffffffffffffffffffffffffffffffff16815260200190815260200160002054905081811015611153576040517f08c379a000000000000000000000000000000000000000000000000000000000815260040161114a90611ee0565b60405180910390fd5b8181036000808573ffffffffffffffffffffffffffffffffffffffff1673ffffffffffffffffffffffffffffffffffffffff1681526020019081526020016000208190555081600260008282540392505081905550600073ffffffffffffffffffffffffffffffffffffffff168373ffffffffffffffffffffffffffffffffffffffff167fddf252ad1be2c89b69c2b068fc378daa952ba7f163c4a11628f55a4df523b3ef8460405161120691906114c2565b60405180910390a361121a836000846112df565b505050565b600073ffffffffffffffffffffffffffffffffffffffff168373ffffffffffffffffffffffffffffffffffffffff161415801561128857504173ffffffffffffffffffffffffffffffffffffffff168273ffffffffffffffffffffffffffffffffffffffff1614155b80156112c15750600073ffffffffffffffffffffffffffffffffffffffff164173ffffffffffffffffffffffffffffffffffffffff1614155b156112cf576112ce6112e4565b5b6112da838383610b6c565b505050565b505050565b6112f041600654610d42565b565b600081519050919050565b600082825260208201905092915050565b60005b8381101561132c578082015181840152602081019050611311565b60008484015250505050565b6000601f19601f8301169050919050565b6000611354826112f2565b61135e81856112fd565b935061136e81856020860161130e565b61137781611338565b840191505092915050565b6000602082019050818103600083015261139c8184611349565b905092915050565b600080fd5b600073ffffffffffffffffffffffffffffffffffffffff82169050919050565b60006113d4826113a9565b9050919050565b6113e4816113c9565b81146113ef57600080fd5b50565b600081359050611401816113db565b92915050565b6000819050919050565b61141a81611407565b811461142557600080fd5b50565b60008135905061143781611411565b92915050565b60008060408385031215611454576114536113a4565b5b6000611462858286016113f2565b925050602061147385828601611428565b9150509250929050565b60008115159050919050565b6114928161147d565b82525050565b60006020820190506114ad6000830184611489565b92915050565b6114bc81611407565b82525050565b60006020820190506114d760008301846114b3565b92915050565b6000602082840312156114f3576114f26113a4565b5b600061150184828501611428565b91505092915050565b600080600060608486031215611523576115226113a4565b5b6000611531868287016113f2565b9350506020611542868287016113f2565b925050604061155386828701611428565b9150509250925092565b600060ff82169050919050565b6115738161155d565b82525050565b600060208201905061158e600083018461156a565b92915050565b6000602082840312156115aa576115a96113a4565b5b60006115b8848285016113f2565b91505092915050565b60006115cc826113a9565b9050919050565b6115dc816115c1565b82525050565b60006020820190506115f760008301846115d3565b92915050565b60008060408385031215611614576116136113a4565b5b6000611622858286016113f2565b9250506020611633858286016113f2565b9150509250929050565b7f4e487b7100000000000000000000000000000000000000000000000000000000600052602260045260246000fd5b6000600282049050600182168061168457607f821691505b6020821081036116975761169661163d565b5b50919050565b7f5265717569726573206f776e65722070726576696c6167657300000000000000600082015250565b60006116d36019836112fd565b91506116de8261169d565b602082019050919050565b60006020820190508181036000830152611702816116c6565b9050919050565b7f4e487b7100000000000000000000000000000000000000000000000000000000600052601160045260246000fd5b60008160011c9050919050565b6000808291508390505b600185111561178f5780860481111561176b5761176a611709565b5b600185161561177a5780820291505b808102905061178885611738565b945061174f565b94509492505050565b6000826117a85760019050611864565b816117b65760009050611864565b81600181146117cc57600281146117d657611805565b6001915050611864565b60ff8411156117e8576117e7611709565b5b8360020a9150848211156117ff576117fe611709565b5b50611864565b5060208310610133831016604e8410600b841016171561183a5782820a90508381111561183557611834611709565b5b611864565b6118478484846001611745565b9250905081840481111561185e5761185d611709565b5b81810290505b9392505050565b600061187682611407565b91506118818361155d565b92506118ae7fffffffffffffffffffffffffffffffffffffffffffffffffffffffffffffffff8484611798565b905092915050565b60006118c182611407565b91506118cc83611407565b92508282026118da81611407565b915082820484148315176118f1576118f0611709565b5b5092915050565b600061190382611407565b915061190e83611407565b925082820190508082111561192657611925611709565b5b92915050565b7f45524332303a2064656372656173656420616c6c6f77616e63652062656c6f7760008201527f207a65726f000000000000000000000000000000000000000000000000000000602082015250565b60006119886025836112fd565b91506119938261192c565b604082019050919050565b600060208201905081810360008301526119b78161197b565b9050919050565b7f45524332304361707065643a2063617020657863656564656400000000000000600082015250565b60006119f46019836112fd565b91506119ff826119be565b602082019050919050565b60006020820190508181036000830152611a23816119e7565b9050919050565b7f45524332303a206d696e7420746f20746865207a65726f206164647265737300600082015250565b6000611a60601f836112fd565b9150611a6b82611a2a565b602082019050919050565b60006020820190508181036000830152611a8f81611a53565b9050919050565b7f45524332303a20617070726f76652066726f6d20746865207a65726f2061646460008201527f7265737300000000000000000000000000000000000000000000000000000000602082015250565b6000611af26024836112fd565b9150611afd82611a96565b604082019050919050565b60006020820190508181036000830152611b2181611ae5565b9050919050565b7f45524332303a20617070726f766520746f20746865207a65726f20616464726560008201527f7373000000000000000000000000000000000000000000000000000000000000602082015250565b6000611b846022836112fd565b9150611b8f82611b28565b604082019050919050565b60006020820190508181036000830152611bb381611b77565b9050919050565b7f45524332303a20696e73756666696369656e7420616c6c6f77616e6365000000600082015250565b6000611bf0601d836112fd565b9150611bfb82611bba565b602082019050919050565b60006020820190508181036000830152611c1f81611be3565b9050919050565b7f45524332303a207472616e736665722066726f6d20746865207a65726f20616460008201527f6472657373000000000000000000000000000000000000000000000000000000602082015250565b6000611c826025836112fd565b9150611c8d82611c26565b604082019050919050565b60006020820190508181036000830152611cb181611c75565b9050919050565b7f45524332303a207472616e7366657220746f20746865207a65726f206164647260008201527f6573730000000000000000000000000000000000000000000000000000000000602082015250565b6000611d146023836112fd565b9150611d1f82611cb8565b604082019050919050565b60006020820190508181036000830152611d4381611d07565b9050919050565b7f45524332303a207472616e7366657220616d6f756e742065786365656473206260008201527f616c616e63650000000000000000000000000000000000000000000000000000602082015250565b6000611da66026836112fd565b9150611db182611d4a565b604082019050919050565b60006020820190508181036000830152611dd581611d99565b9050919050565b7f45524332303a206275726e2066726f6d20746865207a65726f2061646472657360008201527f7300000000000000000000000000000000000000000000000000000000000000602082015250565b6000611e386021836112fd565b9150611e4382611ddc565b604082019050919050565b60006020820190508181036000830152611e6781611e2b565b9050919050565b7f45524332303a206275726e20616d6f756e7420657863656564732062616c616e60008201527f6365000000000000000000000000000000000000000000000000000000000000602082015250565b6000611eca6022836112fd565b9150611ed582611e6e565b604082019050919050565b60006020820190508181036000830152611ef981611ebd565b905091905056fea2646970667358221220fa58e7e443ea67c7296ff8e5431e437f8088bfa24ee1064b2854987f0bc677fa64736f6c63430008110033",
  "linkReferences": {},
  "deployedLinkReferences": {}
}